:020000020000FC
:100000000C9402000FEF0DBF00E10EBF00EF01BB2B
:100010000FEF04BB05BB2FD00C94670018BB002763
:100020000BBB0000DA9A000000000000DA98000024
:1000300000000000089518BB08E00BBB0000DA9A2E
:10004000000000000000DA980000000000000895A1
:10005000002707BB08BB02E00BBB0000DA9A0000D8
:100060000000000006B3DA9807FDF7CF00270BBBAE
:100070000FEF07BB08950FEF07BB0ABB28E93AE370
:1000800018D018E3CBDF24E030E113D0C7DF24E63B
:1000900030E00FD0C3DFC2DFDBDF18E0BFDFD8DF27
:1000A00011E0BCDFD5DF16E0B9DFD2DF1EE0B6DF3E
:1000B0000895215030400000000000000000C9F702
:1000C000089553616C7574204A6F686E6E797FEE87
:1000D00066270C948600E2ECF0E041E0CCDF41E0E2
:1000E000B7DFA9DF4A95D9F7B3DF10EC97DF41E01E
:1000F00011E3AEDFA0DF13951A3318F010E30C9470
:1001000067004A95B1F70C946700FFCF72BB0FEF01
:100110000C9491006330D9F20894771F63950C9486
:1001200086000A95F1F700B30F700F3099F371E074
:1001300055270C949B00802F872319F406D00C942C
:1001400067005395770F0C949B00633041F0533058
:1001500051F0052F000F050F060F039510C00AE0A0
:10016000050F0C94BF00603021F0613029F00FE0E2
:1001700006C00EE00C94BF0000270C94BF0005BB26
:10018000083019F0073039F0089508E3902F73DF35
:10019000192F0C946F0007E3902F6DDF192F0C942B
:1001A0006F0028E93AE385DF0895FBDFFADFF9DF26
:1001B000F8DFF7DFF6DFF5DFF4DFF3DFF2DF0895D6
:00000001FF
